:020000040800F2
:1000000000280020A5160008891400089114000893
:1000100099140008A1140008A914000800000000A9
:10002000000000000000000000000000B114000803
:10003000BD14000800000000C9140008D514000811
:10004000ED160008ED160008ED160008ED16000884
:10005000ED160008ED160008ED160008ED16000874
:10006000ED160008ED160008ED160008ED16000864
:10007000ED160008ED160008ED160008ED16000854
:10008000ED160008ED160008ED160008ED16000844
:10009000ED160008ED160008ED160008ED16000834
:1000A000ED160008ED160008ED160008ED16000824
:1000B000E1140008ED16000800000000ED1600082D
:1000C000ED1600080000000000000000ED1600081A
:1000D00000000000ED160008ED160008000000000A
:1000E000ED160008ED160008ED16000800000000EF
:1000F0000000000000000000000000000000000000
:0C01000000000000000000005FF808F1A3
:10010C0010B5054C237833B9044B13B10448AFF345
:10011C0000800123237010BD40000020000000006F
:10012C00242D000808B5034B1BB103490348AFF35A
:10013C00008008BD0000000044000020242D0008B1
:10014C0080B582B000AF00237B6011E0154A7B685C
:10015C00012142F82310144A7B68012142F8231034
:10016C00124A7B68012142F823107B6801337B60C3
:10017C007B68022BEADD01224FF400510C4801F0A0
:10018C00B4FD01224FF48041094801F0AEFD01227B
:10019C004FF40041064801F0A8FD00BF0837BD46EA
:1001AC0080BD00BF0C0000201800002000000020C3
:1001BC000008014080B483B000AF7860094A7B68C6
:1001CC0052F82330012B06D1064A7B68002142F8F5
:1001DC002310012300E0002318460C37BD4680BCD9
:1001EC00704700BF5C00002080B582B000AF0023D8
:1001FC007B6089E0494A7B6852F8232048497B6838
:10020C0041F82320474A7B6852F8232043497B68F6
:10021C0041F823207B68002B0BD14FF4005142484E
:10022C0001F04CFD034619463E4A7B6842F8231008
:10023C001CE07B68012B0BD14FF480413A4801F054
:10024C003DFD03461946374A7B6842F823100DE002
:10025C007B68022B0AD14FF40041334801F02EFD8C
:10026C00034619462F4A7B6842F823102C4A7B68B8
:10027C0052F8232029497B6851F823309A4240D107
:10028C00264A7B6852F8232026497B6851F8233094
:10029C009A4236D1234A7B6852F8232023497B6843
:1002AC0051F823309A4218D01E4A7B6852F823200A
:1002BC001E497B6841F823201A4A7B6852F8233088
:1002CC00002B1ED11A4A7B68642142F82310194A6C
:1002DC007B68012142F8231013E0154A7B6852F821
:1002EC0023305A1E12497B6841F82320104A7B6840
:1002FC0052F82330002B04D10C4A7B68012142F8C0
:10030C0023107B6801337B607B68022B7FF772AF15
:10031C0000BF00BF0837BD4680BD00BF18000020DD
:10032C000C000020000000200008014024000020E8
:10033C00680000205C00002080B500AF5C4B1B689F
:10034C00042B00F28E8001A252F823F06D030008FA
:10035C009F030008CD0300080704000835040008BB
:10036C00544B1B684FF47A7202FB03F3184600F0EF
:10037C0099FF514B1B68514A13604E4B1B68504AF6
:10038C00136001F0DBF801F047F9494B01221A60C8
:10039C0070E04C4B1B68012B65D14B4B1B684FF429
:1003AC007A7202FB03F3184600F07CFF01F01EF991
:1003BC00454B1B68424A13603D4B02221A6052E0C7
:1003CC00404B1B68012B50D13A4B1B684FF47A728F
:1003DC0002FB03F3184600F065FF01F0DBF801F0B7
:1003EC00EFF8344B1B68354A1360334B1B68344AA7
:1003FC0013602F4B03221A6037E0324B1B68012B22
:10040C0035D1314B1B684FF47A7202FB03F318465B
:10041C0000F048FF01F0A8F82B4B1B68274A13602B
:10042C00234B04221A6022E0264B1B68012B20D19F
:10043C00204B1B684FF47A7202FB03F3184600F052
:10044C0031FF01F07BF801F0E7F81B4B1B681B4AEE
:10045C001360184B1B681A4A1360154B01221A6063
:10046C0007E000BF06E000BF04E000BF02E000BFF1
:10047C0000E000BF154B1B68012B17D14FF47A70AD
:10048C0000F02CFF0D4B1B68184600F0B3FD0C4B15
:10049C001B68184600F0D2FD084B1B68013B074A4D
:1004AC001360074B1B68013B054A136000BF80BDFE
:1004BC00840000208C00002090000020940000207C
:1004CC0098000020E400002088000020EC000020B0
:1004DC0080B500AFA24B1B68013B032B00F23581AA
:1004EC0001A252F823F000BF0505000841050008E1
:1004FC00E90500088F060008FFF71EFF0020FFF734
:10050C0059FE0346012B40F022814FF4FA7000F0A3
:10051C0001FF944B1B68944A1360944B02221A609F
:10052C00904B1B68924A13608D4B02221A6000F0AC
:10053C00E1FF0CE18F4B1B68012B0FD14FF4FA70CC
:10054C0000F0E8FE01F07EF8884B1B68184600F0BE
:10055C0051FD874B1B68184600F070FD0020FFF71B
:10056C0029FE0346012B13D14FF4FA7000F0D2FE92
:10057C00814B1B687C4A13607C4B03221A607E4BB8
:10058C001B687B4A1360764B03221A6000F0B2FFA3
:10059C000120FFF70FFE0346012B0FD1724B1B6896
:1005AC00632B02DD704B01221A606F4B1B68013309
:1005BC006D4A13606C4B1B686D4A13600220FFF789
:1005CC00F9FD0346012B40F0C480674B1B686B4A56
:1005DC0013606A4B1B68664A1360BAE0654B1B6874
:1005EC00012B0FD14FF4FA7000F094FE01F038F8A3
:1005FC005E4B1B68184600F0FDFC5D4B1B681846F3
:10060C0000F01CFD0020FFF7D5FD0346012B13D194
:10061C004FF4FA7000F07EFE594B1B68524A13607F
:10062C00524B04221A60564B1B68514A13604C4BB8
:10063C0004221A6000F05EFF0120FFF7BBFD0346A9
:10064C00012B0FD1484B1B68632B02DD464B01225B
:10065C001A60454B1B680133434A1360424B1B68BD
:10066C00434A13600220FFF7A5FD0346012B72D10C
:10067C003D4B1B68434A1360424B1B683C4A13605A
:10068C0069E03C4B1B68012B0FD14FF4FA7000F062
:10069C0041FE00F0F3FF354B1B68184600F0AAFC36
:1006AC00334B1B68184600F0C9FC0020FFF782FD95
:1006BC000346012B0FD1344B00221A604FF4FA7011
:1006CC0000F028FE0A2000F0EDFD0A2000F006FEE6
:1006DC00234B01221A600120FFF76CFD0346012B0E
:1006EC000FD1214B1B68632B02DD1F4B01221A60BB
:1006FC001D4B1B6801331C4A13601B4B1B681C4AA7
:10070C0013600220FFF756FD0346012B25D1164B33
:10071C001B681E4A13601D4B1B68154A13601B4B4C
:10072C001A68184B1B681A44144B1B689A4214D154
:10073C00124B1B680B4A1360124B1B680E4A13605A
:10074C00124B1B680E4A136007E000BF06E000BFA7
:10075C0004E000BF02E000BF00E000BF00BF80BDAE
:10076C003000002090000020740000209400002035
:10077C0098000020F4000020880000207800002061
:10078C008C0000207C0000208400002080000020D1
:10079C0080B400AF0A4B02221A600A4B03221A6083
:1007AC00094B05221A60084B1B68084A1360054B5D
:1007BC001B68074A136000BFBD4680BC704700BF72
:1007CC00880000208C000020900000209400002065
:1007DC009800002080B582B000AF78607B68002B59
:1007EC0013D100220121724801F07FFA002202216C
:1007FC006F4801F07AFA002204216D4801F075FA75
:10080C00002208216A4801F070FA7B68012B13D191
:10081C0000220121664801F068FA00220221644896
:10082C0001F063FA00220421614801F05EFA012212
:10083C0008215F4801F059FA7B68022B13D1002282
:10084C0001215B4801F051FA00220221584801F0C5
:10085C004CFA01220421564801F047FA00220821E3
:10086C00534801F042FA7B68032B13D1002201217B
:10087C004F4801F03AFA002202214D4801F035FAB6
:10088C00012204214A4801F030FA0122082148488B
:10089C0001F02BFA7B68042B13D100220121444870
:1008AC0001F023FA01220221414801F01EFA002234
:1008BC0004213F4801F019FA002208213C4801F0BC
:1008CC0014FA7B68052B13D100220121384801F062
:1008DC000CFA01220221364801F007FA0022042109
:1008EC00334801F002FA01220821314801F0FDF9E8
:1008FC007B68062B13D1002201212D4801F0F5F95C
:10090C00012202212A4801F0F0F901220421284891
:10091C0001F0EBF900220821254801F0E6F97B688B
:10092C00072B13D100220121214801F0DEF901220D
:10093C0002211F4801F0D9F9012204211C4801F0C1
:10094C00D4F9012208211A4801F0CFF97B68082B51
:10095C0013D101220121164801F0C7F9002202210E
:10096C00134801F0C2F900220421114801F0BDF92D
:10097C00002208210E4801F0B8F97B68092B13D12D
:10098C00012201210A4801F0B0F900220221084895
:10099C0001F0ABF900220421054801F0A6F901226F
:1009AC000821034801F0A1F900BF0837BD4680BDFE
:1009BC00000C014080B582B000AF78607B68002BE2
:1009CC0013D100221021724801F08FF9002220214E
:1009DC006F4801F08AF9002240216D4801F085F939
:1009EC00002280216A4801F080F97B68012B13D129
:1009FC0000221021664801F078F900222021644879
:100A0C0001F073F900224021614801F06EF90122D6
:100A1C0080215F4801F069F97B68022B13D1002219
:100A2C0010215B4801F061F900222021584801F0A7
:100A3C005CF901224021564801F057F9002280212F
:100A4C00534801F052F97B68032B13D1002210217B
:100A5C004F4801F04AF9002220214D4801F045F998
:100A6C00012240214A4801F040F9012280214848E6
:100A7C0001F03BF97B68042B13D100221021444870
:100A8C0001F033F901222021414801F02EF9002216
:100A9C0040213F4801F029F9002280213C4801F017
:100AAC0024F97B68052B13D100221021384801F062
:100ABC001CF901222021364801F017F900224021AF
:100ACC00334801F012F901228021314801F00DF96F
:100ADC007B68062B13D1002210212D4801F005F95B
:100AEC00012220212A4801F000F901224021284846
:100AFC0001F0FBF800228021254801F0F6F87B6814
:100B0C00072B13D100221021214801F0EEF801220D
:100B1C0020211F4801F0E9F8012240211C4801F076
:100B2C00E4F8012280211A4801F0DFF87B68082BD9
:100B3C0013D101221021164801F0D7F800222021F0
:100B4C00134801F0D2F800224021114801F0CDF8F1
:100B5C00002280210E4801F0C8F87B68092B13D1C4
:100B6C00012210210A4801F0C0F800222021084877
:100B7C0001F0BBF800224021054801F0B6F8012233
:100B8C008021034801F0B1F800BF0837BD4680BD95
:100B9C00000C014080B582B000AF78607B68002B00
:100BAC0017D100224FF48071854801F09EF8002285
:100BBC004FF40071824801F098F800224FF48061E4
:100BCC007F4801F092F800224FF400617C4801F05C
:100BDC008CF87B68012B17D100224FF48071784878
:100BEC0001F083F800224FF40071754801F07DF894
:100BFC0000224FF48061724801F077F801224FF423
:100C0C0000616F4801F071F87B68022B17D100224C
:100C1C004FF480716A4801F068F800224FF40071BB
:100C2C00674801F062F801224FF48061644801F0DA
:100C3C005CF800224FF40061614801F056F87B68C3
:100C4C00032B17D100224FF480715D4801F04DF851
:100C5C0000224FF400715A4801F047F801224FF47A
:100C6C008061574801F041F801224FF4006154486B
:100C7C0001F03BF87B68042B17D100224FF48071F4
:100C8C004F4801F032F801224FF400714C4801F04A
:100C9C002CF800224FF48061494801F026F800221C
:100CAC004FF40061464801F020F87B68052B17D102
:100CBC0000224FF48071424801F017F801224FF4E2
:100CCC0000713F4801F011F800224FF480613C485C
:100CDC0001F00BF801224FF40061394801F005F8DE
:100CEC007B68062B17D100224FF48071344800F03A
:100CFC00FCFF01224FF40071314800F0F6FF012295
:100D0C004FF480612E4800F0F0FF00224FF4006198
:100D1C002B4800F0EAFF7B68072B17D100224FF419
:100D2C008071274800F0E1FF01224FF40071244844
:100D3C0000F0DBFF01224FF48061214800F0D5FF69
:100D4C0001224FF400611E4800F0CFFF7B68082B96
:100D5C0017D101224FF48071194800F0C6FF002210
:100D6C004FF40071164800F0C0FF00224FF4806170
:100D7C00134800F0BAFF00224FF40061104800F055
:100D8C00B4FF7B68092B17D101224FF480710C48FA
:100D9C0000F0ABFF00224FF40071094800F0A5FFF2
:100DAC0000224FF48061064800F09FFF01224FF4AF
:100DBC000061034800F099FF00BF0837BD4680BDB5
:100DCC00000C014080B582B000AF78607B68002BCE
:100DDC0017D100224FF48051854800F086FF002285
:100DEC004FF40051824800F080FF00224FF4804104
:100DFC007F4800F07AFF00224FF400417C4800F05D
:100E0C0074FF7B68012B17D100224FF48051784876
:100E1C0000F06BFF00224FF40051754800F065FFA5
:100E2C0000224FF48041724800F05FFF01224FF422
:100E3C0000416F4800F059FF7B68022B17D100224C
:100E4C004FF480516A4800F050FF00224FF40051DB
:100E5C00674800F04AFF01224FF48041644800F0DB
:100E6C0044FF00224FF40041614800F03EFF7B68D4
:100E7C00032B17D100224FF480515D4800F035FF51
:100E8C0000224FF400515A4800F02FFF01224FF47A
:100E9C008041574800F029FF01224FF4004154488B
:100EAC0000F023FF7B68042B17D100224FF48051F4
:100EBC004F4800F01AFF01224FF400514C4800F04B
:100ECC0014FF00224FF48041494800F00EFF00222D
:100EDC004FF40041464800F008FF7B68052B17D102
:100EEC0000224FF48051424800F0FFFE01224FF4E3
:100EFC0000513F4800F0F9FE00224FF480413C487D
:100F0C0000F0F3FE01224FF40041394800F0EDFEF1
:100F1C007B68062B17D100224FF48051344800F027
:100F2C00E4FE01224FF40051314800F0DEFE0122B4
:100F3C004FF480412E4800F0D8FE00224FF40041BF
:100F4C002B4800F0D2FE7B68072B17D100224FF400
:100F5C008051274800F0C9FE01224FF4005124486B
:100F6C0000F0C3FE01224FF48041214800F0BDFE89
:100F7C0001224FF400411E4800F0B7FE7B68082B9D
:100F8C0017D101224FF48051194800F0AEFE002217
:100F9C004FF40051164800F0A8FE00224FF4804197
:100FAC00134800F0A2FE00224FF40041104800F05C
:100FBC009CFE7B68092B17D101224FF480510C4801
:100FCC0000F093FE00224FF40051094800F08DFE12
:100FDC0000224FF48041064800F087FE01224FF4B6
:100FEC000041034800F081FE00BF0837BD4680BDBC
:100FFC00000C014080B582B000AF78607B680E4A6F
:10100C0082FB03129210DB17D31A1846FFF7E2FB90
:10101C007A68094B83FB02139910D317C91A0B4634
:10102C009B000B445B00D11A0846FFF7C3FC00BFC2
:10103C000837BD4680BD00BF6766666680B582B066
:10104C0000AF78607B680E4A82FB03129210DB17AC
:10105C00D31A1846FFF79EFD7A68094B83FB0213DF
:10106C009910D317C91A0B469B000B445B00D11A7D
:10107C000846FFF7A7FE00BF0837BD4680BD00BF7E
:10108C006766666680B500AF00F02CFB00F01AF8BE
:10109C0000F0A0F800F052F8094801F085FA0A2097
:1010AC0000F000F90A2000F019F90A2000F032F9DA
:1010BC00FFF746F8FFF76CFBFFF70AFAFCE700BFF7
:1010CC009C00002080B590B000AF07F118032822D7
:1010DC000021184601F0F4FD3B1D00221A605A60F5
:1010EC009A60DA601A610223BB610123BB62102390
:1010FC00FB6200237B6307F11803184600F026FE01
:10110C000346002B01D000F0C7F80F237B600023AF
:10111C00BB600023FB6000233B6100237B613B1D14
:10112C000021184601F094F80346002B01D000F082
:10113C00B3F800BF4037BD4680BD000080B586B017
:10114C0000AF07F1080300221A605A609A60DA6057
:10115C003B4600221A605A601D4B4FF080421A60C9
:10116C001B4B41F63F725A60194B00229A60184B88
:10117C000922DA60164B00221A61154B00229A6183
:10118C00134801F0C1F90346002B01D000F084F89C
:10119C004FF48053BB6007F1080319460C4801F06B
:1011AC003FFB0346002B01D000F076F800233B6098
:1011BC0000237B603B461946054801F017FD0346AA
:1011CC00002B01D000F068F800BF1837BD4680BD79
:1011DC009C00002080B586B000AF07F10803002208
:1011EC001A605A609A60DA60224B9B69214A43F07C
:1011FC00040393611F4B9B6903F004037B607B68C2
:10120C001C4B9B691B4A43F008039361194B9B6968
:10121C0003F008033B603B6800224EF27E01164847
:10122C0000F063FD00224FF6FF71144800F05DFDE5
:10123C004EF27E03BB600123FB6000233B61022363
:10124C007B6107F1080319460B4800F0BBFB4FF616
:10125C00FF73BB600123FB6000233B6102237B61B6
:10126C0007F108031946054800F0ACFB00BF18371E
:10127C00BD4680BD0010024000080140000C01403A
:10128C0080B582B000AF786000F060F8FEF7ACFF7C
:10129C0000BF0837BD4680BD80B400AF72B600BF3A
:1012AC0000BFFDE780B483B000AF78607B68084A6C
:1012BC0082FB03129210DB17D31A064A1360064BFB
:1012CC0000221A6000BF0C37BD4680BC704700BFBF
:1012DC0067666666E8000020E400002080B483B0F6
:1012EC0000AF78607B68084A82FB03129210DB1710
:1012FC00D31A064A1360064B00221A6000BF0C3743
:10130C00BD4680BC704700BF67666666F000002073
:10131C00EC00002080B483B000AF78607B68084A92
:10132C0082FB03129210DB17D31A064A1360064B8A
:10133C0000221A6000BF0C37BD4680BC704700BF4E
:10134C0067666666F8000020F400002080B400AFE9
:10135C00194B1B68002B0BDD174B1B68013B164A06
:10136C001360154B1B68002B02D1144B01221A6021
:10137C00134B1B68002B0BDD114B1B68013B104AF8
:10138C0013600F4B1B68002B02D10E4B01221A600D
:10139C000D4B1B68002B0BDD0B4B1B68013B0A4AEA
:1013AC001360094B1B68002B02D1084B01221A60F9
:1013BC0000BFBD4680BC7047E8000020E400002060
:1013CC00F0000020EC000020F8000020F4000020C9
:1013DC0080B485B000AF154B9B69144A43F00103F0
:1013EC009361124B9B6903F00103BB60BB680F4B0D
:1013FC00DB690E4A43F08053D3610C4BDB6903F07D
:10140C0080537B607B680A4B5B68FB60FB6823F056
:10141C00E063FB60FB6843F08063FB60044AFB689D
:10142C00536000BF1437BD4680BC704700100240AB
:10143C000000014080B584B000AF78607B681B6809
:10144C00B3F1804F13D10C4BDB690B4A43F0010312
:10145C00D361094BDB6903F00103FB60FB680022DD
:10146C0000211C2000F077FA1C2000F090FA00BF3D
:10147C001037BD4680BD00BF0010024080B400AFE5
:10148C0000BFFDE780B400AF00BFFDE780B400AF44
:10149C0000BFFDE780B400AF00BFFDE780B400AF34
:1014AC0000BFFDE780B400AF00BFBD4680BC7047F5
:1014BC0080B400AF00BFBD4680BC704780B400AFA5
:1014CC0000BFBD4680BC704780B500AF00F050F93E
:1014DC0000BF80BD80B500AF024801F0B1F800BF7D
:1014EC0080BD00BF9C00002080B400AF00BFBD4693
:1014FC0080BC704780B500AF012202210E4800F07D
:10150C00F4FB012204210C4800F0EFFB012208211E
:10151C00094800F0EAFB01221021074800F0E5FB26
:10152C0001222021044800F0E0FB01224021024866
:10153C0000F0DBFB00BF80BD0008014080B500AFB0
:10154C0000220221074800F0D0FB012204210548AB
:10155C0000F0CBFB01220821024800F0C6FB00BFC3
:10156C0080BD00BF0008014080B500AF0122022100
:10157C00074800F0BAFB00220421054800F0B5FB37
:10158C0001220821024800F0B0FB00BF80BD00BF63
:10159C000008014080B500AF01220221074800F08D
:1015AC00A4FB01220421054800F09FFB0022082126
:1015BC00024800F09AFB00BF80BD00BF000801404C
:1015CC0080B500AF00221021074800F08EFB0122ED
:1015DC002021054800F089FB01224021024800F03F
:1015EC0084FB00BF80BD00BF0008014080B500AF88
:1015FC0001221021074800F078FB00222021054829
:10160C0000F073FB01224021024800F06EFB00BF8A
:10161C0080BD00BF0008014080B500AF0122102141
:10162C00074800F062FB01222021054800F05DFB19
:10163C0000224021024800F058FB00BF80BD00BFD3
:10164C000008014080B500AF0221044800F065FBA2
:10165C001021024800F061FB00BF80BD0008014072
:10166C0080B500AF0421044800F057FB202102484C
:10167C0000F053FB00BF80BD0008014080B500AFF7
:10168C000821044800F049FB4021024800F045FBCA
:10169C0000BF80BD00080140FFF726FF0B480C4936
:1016AC000C4A002302E0D458C4500433C4188C42B2
:1016BC00F9D3094A094C002301E013600432A24219
:1016CC00FBD301F005FBFFF7DDFC704700000020A9
:1016DC0040000020682D0008400000200001002080
:1016EC00FEE7000080B500AF084B1B68074A43F0CB
:1016FC0010031360032000F023F90F2000F008F80A
:10170C00FFF766FE0023184680BD00BF0020024094
:10171C0080B582B000AF7860124B1A68124B1B7800
:10172C0019464FF47A73B3FBF1F3B2FBF3F318469B
:10173C0000F03BF90346002B01D001230EE07B683F
:10174C000F2B0AD8002279684FF0FF3000F003F914
:10175C00064A7B681360002300E001231846083713
:10176C00BD4680BD340000203C0000203800002025
:10177C0080B400AF054B1B781A46054B1B6813440D
:10178C00034A136000BFBD4680BC70473C0000207C
:10179C00FC00002080B400AF024B1B681846BD460D
:1017AC0080BC7047FC00002080B485B000AF78602E
:1017BC007B6803F00703FB600C4BDB68BB60BA680B
:1017CC004FF6FF031340BB60FB681A02BB68134360
:1017DC0043F0BF6343F40033BB60044ABB68D3607F
:1017EC0000BF1437BD4680BC704700BF00ED00E061
:1017FC0080B400AF044BDB681B0A03F007031846E8
:10180C00BD4680BC704700BF00ED00E080B483B0E3
:10181C0000AF0346FB7197F90730002B0BDBFB790C
:10182C0003F01F02064997F907305B09012000FA03
:10183C0002F241F8232000BF0C37BD4680BC704734
:10184C0000E100E080B483B000AF03463960FB7167
:10185C0097F90730002B0ADB3B68DAB20C4997F991
:10186C0007301201D2B20B4483F800230AE03B6824
:10187C00DAB20849FB7903F00F03043B1201D2B230
:10188C000B441A7600BF0C37BD4680BC704700BFB6
:10189C0000E100E000ED00E080B489B000AFF8603A
:1018AC00B9607A60FB6803F00703FB61FB69C3F165
:1018BC000703042B28BF0423BB61FB690433062BED
:1018CC0002D9FB69033B00E000237B614FF0FF3240
:1018DC00BB6902FA03F3DA43BB681A407B699A408E
:1018EC004FF0FF317B6901FA03F3D9437B680B405E
:1018FC00134318462437BD4680BC704780B582B070
:10190C0000AF78607B68013BB3F1807F01D301238A
:10191C000FE00A4A7B68013B53600F214FF0FF3008
:10192C00FFF790FF054B00229A60044B07221A60C8
:10193C00002318460837BD4680BD00BF10E000E00C
:10194C0080B582B000AF78607868FFF72DFF00BFDC
:10195C000837BD4680BD80B586B000AF0346B96080
:10196C007A60FB7300237B61FFF742FF78617A6832
:10197C00B9687869FFF790FF024697F90F30114666
:10198C001846FFF75FFF00BF1837BD4680BD80B516
:10199C0082B000AF0346FB7197F907301846FFF78A
:1019AC0035FF00BF0837BD4680BD80B582B000AFA3
:1019BC0078607868FFF7A2FF034618460837BD46E3
:1019CC0080BD000080B48BB000AF7860396000231C
:1019DC007B6200233B6261E101227B6A02FA03F322
:1019EC00FB613B681B68FA691340BB61BA69FB6910
:1019FC009A4240F050813B685B68974A93425ED0B4
:101A0C00954A934275D8954A934258D0934A93423B
:101A1C006FD8934A934252D0914A934269D8914AD3
:101A2C0093424CD08F4A934263D88F4A934246D00C
:101A3C008D4A93425DD8122B2AD8122B59D801A269
:101A4C0052F823F0CB1A0008A51A0008B71A0008A0
:101A5C00F91A0008FF1A0008FF1A0008FF1A0008FC
:101A6C00FF1A0008FF1A0008FF1A0008FF1A0008E6
:101A7C00FF1A0008FF1A0008FF1A0008FF1A0008D6
:101A8C00FF1A0008FF1A0008AD1A0008C11A000856
:101A9C00764A934213D02CE03B68DB683B6229E02A
:101AAC003B68DB6804333B6224E03B68DB6808334B
:101ABC003B621FE03B68DB680C333B621AE03B681F
:101ACC009B68002B02D104233B6213E03B689B68AC
:101ADC00012B05D108233B627B68FA691A6109E086
:101AEC0008233B627B68FA695A6103E000233B627E
:101AFC0000E000BFBB69FF2B01D87B6801E07B686D
:101B0C0004337B61BB69FF2B02D87B6A9B0002E02C
:101B1C007B6A083B9B003B617B691A680F213B6920
:101B2C0001FA03F3DB431A40396A3B6901FA03F308
:101B3C001A437B691A603B685B6803F08053002B87
:101B4C0000F0A9804A4B9B69494A43F00103936119
:101B5C00474B9B6903F00103BB60BB68454A7B6A3A
:101B6C009B08023352F82330FB607B6A03F00303BB
:101B7C009B000F2202FA03F3DB43FA681340FB606D
:101B8C007B683D4A93420DD07B683C4A934207D018
:101B9C007B683B4A934201D1022304E0032302E019
:101BAC00012300E000237A6A02F0030292009340C2
:101BBC00FA681343FB602F497B6A9B080233FA686F
:101BCC0041F823203B685B6803F48013002B06D09C
:101BDC002C4B9A682B49BB6913438B6006E0294B4D
:101BEC009A68BB69DB43274913408B603B685B6891
:101BFC0003F40013002B06D0224BDA682149BB6991
:101C0C001343CB6006E01F4BDA68BB69DB431D490D
:101C1C001340CB603B685B6803F40033002B06D0A9
:101C2C00184B5A681749BB6913434B6006E0154BB8
:101C3C005A68BB69DB43134913404B603B685B68D4
:101C4C0003F48033002B1FD00E4B1A680D49BB696F
:101C5C0013430B601FE000BF000032100000311076
:101C6C0000002210000021100000121000001110C2
:101C7C00001002400000014000080140000C01402F
:101C8C0000100140000401400B4B1A68BB69DB4398
:101C9C00094913400B607B6A01337B623B681A680D
:101CAC007B6A22FA03F3002B7FF496AE00BF00BFD1
:101CBC002C37BD4680BC70470004014080B485B011
:101CCC0000AF78600B467B807B689A687B881340FA
:101CDC00002B02D00123FB7301E00023FB73FB7B81
:101CEC0018461437BD4680BC704780B483B000AF33
:101CFC0078600B467B8013467B707B78002B03D07F
:101D0C007A887B681A6103E07B881A047B681A6105
:101D1C0000BF0C37BD4680BC704780B485B000AFA7
:101D2C0078600B467B807B68DB68FB607A88FB689D
:101D3C0013401A04FB68D9437B880B401A437B6819
:101D4C001A6100BF1437BD4680BC704780B586B0A1
:101D5C0000AF78607B68002B01D1012372E27B68B5
:101D6C001B6803F00103002B00F08780924B5B682B
:101D7C0003F00C03042B0CD08F4B5B6803F00C03AB
:101D8C00082B12D18C4B5B6803F48033B3F5803F86
:101D9C000BD1894B1B6803F40033002B6CD07B6890
:101DAC005B68002B68D101234CE27B685B68B3F560
:101DBC00803F06D1804B1B687F4A43F4803313600D
:101DCC002EE07B685B68002B0CD17B4B1B687A4A3E
:101DDC0023F480331360784B1B68774A23F48023F9
:101DEC0013601DE07B685B68B3F5A02F0CD1724BC0
:101DFC001B68714A43F4802313606F4B1B686E4A57
:101E0C0043F4803313600BE06B4B1B686A4A23F47A
:101E1C0080331360684B1B68674A23F4802313607C
:101E2C007B685B68002B13D0FFF7B4FC386108E0CB
:101E3C00FFF7B0FC02463B69D31A642B01D903238C
:101E4C0000E25D4B1B6803F40033002BF0D014E070
:101E5C00FFF7A0FC386108E0FFF79CFC02463B69E9
:101E6C00D31A642B01D90323ECE1534B1B6803F405
:101E7C000033002BF0D100E000BF7B681B6803F03F
:101E8C000203002B63D04C4B5B6803F00C03002B5C
:101E9C000BD0494B5B6803F00C03082B1CD1464B51
:101EAC005B6803F48033002B16D1434B1B6803F0A3
:101EBC000203002B05D07B681B69012B01D0012389
:101ECC00C0E13D4B1B6823F0F8027B685B69DB00CB
:101EDC00394913430B603AE07B681B69002B20D017
:101EEC00364B01221A60FFF755FC386108E0FFF70A
:101EFC0051FC02463B69D31A022B01D90323A1E101
:101F0C002D4B1B6803F00203002BF0D02A4B1B68EF
:101F1C0023F0F8027B685B69DB00274913430B60F5
:101F2C0015E0264B00221A60FFF734FC386108E0FC
:101F3C00FFF730FC02463B69D31A022B01D903236D
:101F4C0080E11D4B1B6803F00203002BF0D17B6872
:101F5C001B6803F00803002B3AD07B689B69002BAD
:101F6C0019D0174B01221A60FFF714FC386108E0F6
:101F7C00FFF710FC02463B69D31A022B01D903234D
:101F8C0060E10D4B5B6A03F00203002BF0D00120E3
:101F9C0000F09CFA1CE00A4B00221A60FFF7FAFBD7
:101FAC0038610FE0FFF7F6FB02463B69D31A022BB0
:101FBC0008D9032346E100BF001002400000424252
:101FCC0080044242924B5B6A03F00203002BE9D17E
:101FDC007B681B6803F00403002B00F0A680002331
:101FEC00FB758B4BDB6903F08053002B0DD1884BB9
:101FFC00DB69874A43F08053D361854BDB6903F07F
:10200C008053BB60BB680123FB75824B1B6803F4D8
:10201C008073002B18D17F4B1B687E4A43F480736E
:10202C001360FFF7B7FB386108E0FFF7B3FB02461C
:10203C003B69D31A642B01D9032303E1754B1B684D
:10204C0003F48073002BF0D07B68DB68012B06D186
:10205C006F4B1B6A6E4A43F0010313622DE07B68E1
:10206C00DB68002B0CD16A4B1B6A694A23F0010315
:10207C001362674B1B6A664A23F0040313621CE06D
:10208C007B68DB68052B0CD1614B1B6A604A43F003
:10209C00040313625E4B1B6A5D4A43F00103136237
:1020AC000BE05B4B1B6A5A4A23F001031362584B3B
:1020BC001B6A574A23F0040313627B68DB68002B0E
:1020CC0015D0FFF767FB38610AE0FFF763FB0246A8
:1020DC003B69D31A41F28832934201D90323B1E010
:1020EC004B4B1B6A03F00203002BEED014E0FFF7FE
:1020FC0051FB38610AE0FFF74DFB02463B69D31AEE
:10210C0041F28832934201D903239BE0404B1B6A76
:10211C0003F00203002BEED1FB7D012B05D13C4BD0
:10212C00DB693B4A23F08053D3617B68DB69002B6E
:10213C0000F08780364B5B6803F00C03082B61D0F2
:10214C007B68DB69022B46D1334B00221A60FFF708
:10215C0021FB386108E0FFF71DFB02463B69D31AEF
:10216C00022B01D903236DE0294B1B6803F000738C
:10217C00002BF0D17B681B6AB3F5803F08D1244B50
:10218C005B6823F400327B689B68214913434B60E6
:10219C001F4B5B6823F474127B68196A7B685B6A5B
:1021AC000B431B4913434B601B4B01221A60FFF777
:1021BC00F1FA386108E0FFF7EDFA02463B69D31AF1
:1021CC00022B01D903233DE0114B1B6803F0007374
:1021DC00002BF0D035E0104B00221A60FFF7DAFA32
:1021EC00386108E0FFF7D6FA02463B69D31A022B96
:1021FC0001D9032326E0064B1B6803F00073002B68
:10220C00F0D11EE07B68DB69012B07D1012319E0BB
:10221C000010024000700040600042420B4B5B68B3
:10222C00FB60FB6803F480327B681B6A9A4206D120
:10223C00FB6803F470127B685B6A9A4201D001233D
:10224C0000E0002318461837BD4680BD0010024040
:10225C0080B584B000AF786039607B68002B01D109
:10226C000123D0E06A4B1B6803F007033A689A42DB
:10227C0010D9674B1B6823F0070265493B68134371
:10228C000B60634B1B6803F007033A689A4201D05A
:10229C000123B8E07B681B6803F00203002B20D0FD
:1022AC007B681B6803F00403002B05D0594B5B685B
:1022BC00584A43F4E06353607B681B6803F00803DF
:1022CC00002B05D0534B5B68524A43F46053536068
:1022DC00504B5B6823F0F0027B689B684D491343BD
:1022EC004B607B681B6803F00103002B40D07B68BC
:1022FC005B68012B07D1474B1B6803F40033002BA1
:10230C0015D101237FE07B685B68022B07D1414B21
:10231C001B6803F00073002B09D1012373E03D4BC4
:10232C001B6803F00203002B01D101236BE0394B36
:10233C005B6823F003027B685B68364913434B6090
:10234C00FFF728FAF8600AE0FFF724FA0246FB6868
:10235C00D31A41F28832934201D9032353E02D4B17
:10236C005B6803F00C027B685B689B009A42EBD1C4
:10237C00274B1B6803F007033A689A4210D2244B90
:10238C001B6823F0070222493B6813430B60204B68
:10239C001B6803F007033A689A4201D0012332E02C
:1023AC007B681B6803F00403002B08D0194B5B6897
:1023BC0023F4E0627B68DB68164913434B607B684F
:1023CC001B6803F00803002B09D0124B5B6823F445
:1023DC0060527B681B69DB000E4913434B6000F0B5
:1023EC0021F802460B4B5B681B0903F00F030A49EB
:1023FC00CB5C22FA03F3094A1360094B1B6818469D
:10240C00FFF786F9002318461037BD4680BD00BF84
:10241C0000200240001002403C2D00083400002037
:10242C003800002080B487B000AF0023FB6000238D
:10243C00BB6000237B6100237B6000233B611E4B50
:10244C005B68FB60FB6803F00C03042B02D0082BC9
:10245C0003D027E0194B3B6127E0FB689B0C03F092
:10246C000F03174AD35C7B60FB6803F48033002BAB
:10247C0010D0114B5B685B0C03F00103114AD35C69
:10248C00BB607B680D4A03FB02F2BB68B2FBF3F343
:10249C007B6104E07B680C4A02FB03F37B617B6984
:1024AC003B6102E0054B3B6100BF3B6918461C37A2
:1024BC00BD4680BC704700BF0010024000127A007D
:1024CC004C2D00085C2D000800093D0080B485B03F
:1024DC0000AF78600A4B1B680A4AA2FB03235B0A15
:1024EC007A6802FB03F3FB6000BFFB685A1EFA60BC
:1024FC00002BF9D100BF00BF1437BD4680BC70471C
:10250C0034000020D34D621080B582B000AF7860EB
:10251C007B68002B01D1012341E07B6893F83D30AF
:10252C00DBB2002B06D17B68002283F83C20786854
:10253C00FEF780FF7B68022283F83D207B681A68D7
:10254C007B6804331946104600F056FA7B6801226A
:10255C0083F846207B68012283F83E207B680122A9
:10256C0083F83F207B68012283F840207B6801229E
:10257C0083F841207B68012283F842207B6801228A
:10258C0083F843207B68012283F844207B68012276
:10259C0083F845207B68012283F83D2000231846F0
:1025AC000837BD4680BD000080B485B000AF7860B0
:1025BC007B6893F83D30DBB2012B01D0012335E071
:1025CC007B68022283F83D207B681B68DA687B6895
:1025DC001B6842F00102DA607B681B68164A934262
:1025EC0009D07B681B68B3F1804F04D07B681B68F3
:1025FC00124A934211D17B681B689B6803F0070356
:10260C00FB60FB68062B10D07B681B681A687B6824
:10261C001B6842F001021A6007E07B681B681A68AD
:10262C007B681B6842F001021A60002318461437BD
:10263C00BD4680BC704700BF002C01400004004028
:10264C0080B584B000AF78607B681B68DB68FB608A
:10265C007B681B681B69BB60BB6803F00203002B23
:10266C0020D0FB6803F00203002B1BD07B681B6897
:10267C006FF002021A617B6801221A777B681B6873
:10268C009B6903F00303002B03D0786800F098F9E2
:10269C0005E0786800F08BF9786800F09AF97B68AF
:1026AC0000221A77BB6803F00403002B20D0FB68D0
:1026BC0003F00403002B1BD07B681B686FF0040233
:1026CC001A617B6802221A777B681B689B6903F48A
:1026DC004073002B03D0786800F072F905E078683D
:1026EC0000F065F9786800F074F97B6800221A77BD
:1026FC00BB6803F00803002B20D0FB6803F0080331
:10270C00002B1BD07B681B686FF008021A617B687A
:10271C0004221A777B681B68DB6903F00303002B28
:10272C0003D0786800F04CF905E0786800F03FF9C8
:10273C00786800F04EF97B6800221A77BB6803F0CA
:10274C001003002B20D0FB6803F01003002B1BD0D0
:10275C007B681B686FF010021A617B6808221A777D
:10276C007B681B68DB6903F44073002B03D078682B
:10277C0000F026F905E0786800F019F9786800F0A7
:10278C0028F97B6800221A77BB6803F00103002B41
:10279C000CD0FB6803F00103002B07D07B681B688F
:1027AC006FF001021A617868FEF76AFDBB6803F0EE
:1027BC008003002B0CD0FB6803F08003002B07D0A8
:1027CC007B681B686FF080021A61786800F06FFA02
:1027DC00BB6803F04003002B0CD0FB6803F04003F4
:1027EC00002B07D07B681B686FF040021A61786879
:1027FC0000F0F8F8BB6803F02003002B0CD0FB684A
:10280C0003F02003002B07D07B681B686FF02002BD
:10281C001A61786800F042FA00BF1037BD4680BDDF
:10282C0080B584B000AF786039600023FB737B689F
:10283C0093F83C30012B01D10223B4E07B680122D8
:10284C0083F83C207B68022283F83D207B681B6860
:10285C009B68BB60BB6823F07703BB60BB6823F449
:10286C007F43BB607B681B68BA689A603B681B68D7
:10287C00B3F5005F3ED0B3F5005F00F28780B3F58F
:10288C00805F00F08680B3F5805F7FD8702B1AD004
:10289C00702B7BD8602B50D0602B77D8502B3CD032
:1028AC00502B73D8402B58D0402B6FD8302B64D082
:1028BC00302B6BD8202B60D0202B67D8002B5CD012
:1028CC00102B5AD062E07B6818683B6899683B68AB
:1028DC005A683B68DB6800F06AF97B681B689B6888
:1028EC00BB60BB6843F07703BB607B681B68BA684E
:1028FC009A604FE07B6818683B6899683B685A6837
:10290C003B68DB6800F053F97B681B689A687B684E
:10291C001B6842F480429A603CE07B6818683B6814
:10292C0059683B68DB681A4600F0CAF87B681B687C
:10293C005021184600F021F92CE07B6818683B68A0
:10294C0059683B68DB681A4600F0E8F87B681B683E
:10295C006021184600F011F91CE07B6818683B6890
:10296C0059683B68DB681A4600F0AAF87B681B685C
:10297C004021184600F001F90CE07B681A683B68AE
:10298C001B681946104600F0F8F803E00123FB73AE
:10299C0000E000BF7B68012283F83D207B680022A9
:1029AC0083F83C20FB7B18461037BD4680BD80B4B5
:1029BC0083B000AF786000BF0C37BD4680BC704759
:1029CC0080B483B000AF786000BF0C37BD4680BCCC
:1029DC00704780B483B000AF786000BF0C37BD4641
:1029EC0080BC704780B483B000AF786000BF0C37F8
:1029FC00BD4680BC7047000080B485B000AF7860E5
:102A0C0039607B681B68FB607B682B4A934207D05C
:102A1C007B68B3F1804F03D07B68284A934208D17E
:102A2C00FB6823F07003FB603B685B68FA68134338
:102A3C00FB607B68204A934207D07B68B3F1804FE0
:102A4C0003D07B681D4A934208D1FB6823F4407382
:102A5C00FB603B68DB68FA681343FB60FB6823F0A0
:102A6C0080023B685B691343FB607B68FA681A6001
:102A7C003B689A687B68DA623B681A687B689A6282
:102A8C007B680D4A934203D13B681A697B681A63D1
:102A9C007B6801225A617B681B6903F00103002BE0
:102AAC0005D07B681B6923F001027B681A6100BFAB
:102ABC001437BD4680BC7047002C01400004004018
:102ACC0080B487B000AFF860B9607A60FB681B6AAD
:102ADC007B61FB681B6A23F00102FB681A62FB68CE
:102AEC009B693B613B6923F0F0033B617B681B01F5
:102AFC003A6913433B617B6923F00A037B617A6972
:102B0C00BB6813437B61FB683A699A61FB687A691D
:102B1C001A6200BF1C37BD4680BC704780B487B0BA
:102B2C0000AFF860B9607A60FB681B6A7B61FB6878
:102B3C001B6A23F01002FB681A62FB689B693B61FD
:102B4C003B6923F470433B617B681B033A69134375
:102B5C003B617B6923F0A0037B61BB681B017A6935
:102B6C0013437B61FB683A699A61FB687A691A6264
:102B7C0000BF1C37BD4680BC704780B485B000AF29
:102B8C00786039607B689B68FB60FB6823F070039E
:102B9C00FB603A68FB68134343F00703FB607B68F8
:102BAC00FA689A6000BF1437BD4680BC704780B489
:102BBC0087B000AFF860B9607A603B60FB689B68D7
:102BCC007B617B6923F47F437B613B681A027B68E2
:102BDC001A43BB6813437A6913437B61FB687A69B8
:102BEC009A6000BF1C37BD4680BC704780B485B06E
:102BFC0000AF786039607B6893F83C30012B01D1D1
:102C0C00022341E07B68012283F83C207B6802228E
:102C1C0083F83D207B681B685B68FB607B681B68E6
:102C2C009B68BB60FB6823F07003FB603B681B6810
:102C3C00FA681343FB607B681B68FA685A607B6810
:102C4C001B68144A934209D07B681B68B3F1804F10
:102C5C0004D07B681B68104A93420CD1BB6823F0EC
:102C6C008003BB603B685B68BA681343BB607B68DE
:102C7C001B68BA689A607B68012283F83D207B68E8
:102C8C00002283F83C20002318461437BD4680BC34
:102C9C00704700BF002C01400004004080B483B09A
:102CAC0000AF786000BF0C37BD4680BC704780B465
:102CBC0083B000AF786000BF0C37BD4680BC704756
:102CCC0003460244934200D1704703F8011BF9E715
:102CDC0070B500260C4D0D4C641BA410A64209D1F6
:102CEC0000F01AF800260A4D0A4C641BA410A642E8
:102CFC0005D170BD55F8043B98470136EEE755F801
:102D0C00043B98470136F2E7602D0008602D00085F
:102D1C00602D0008642D0008F8B500BFF8BC08BC95
:102D2C009E467047F8B500BFF8BC08BC9E4670477D
:102D3C00000000000000000001020304060708095F
:102D4C0002030405060708090A0B0C0D0E0F1010E0
:042D5C000102000070
:042D60003101000835
:042D64000D01000855
:102D68000100000000000000000000000100000059
:102D7800000000000000000001000000000000004A
:102D8800000000000100000000000000000000003A
:102D98000100000000127A0010000000010000008D
:04000005080016A534
:00000001FF
