:020000040800F2
:100000000028002025110008A50F0008AD0F0008EA
:10001000B50F0008BD0F0008C50F00080000000064
:10002000000000000000000000000000CD0F0008EC
:10003000D90F000800000000E50F0008F10F0008CC
:100040006D1100086D1100086D1100086D11000898
:100050006D1100086D1100086D1100086D11000888
:100060006D1100086D1100086D1100086D11000878
:100070006D1100086D1100086D1100086D11000868
:100080006D1100086D1100086D1100086D11000858
:100090006D1100086D1100086D1100086D11000848
:1000A0006D1100086D1100086D1100086D11000838
:1000B000FD0F00086D110008000000006D11000820
:1000C0006D11000800000000000000006D11000824
:1000D000000000006D1100086D1100080000000014
:1000E0006D1100086D1100086D110008000000007E
:1000F0000000000000000000000000000000000000
:0C01000000000000000000005FF808F1A3
:10010C0010B5054C237833B9044B13B10448AFF345
:10011C0000800123237010BD0C00002000000000A3
:10012C004427000808B5034B1BB103490348AFF340
:10013C00008008BD000000001000002044270008CB
:10014C0080B500AF654B1B68002B0CD1644B1B6852
:10015C00184600F007FD634B1B68184600F026FD9F
:10016C00614B01221A60614B1B68042B00F28F80DB
:10017C0001A252F823F000BF99010008CB0100083E
:10018C00F90100083302000861020008584B1B6893
:10019C004FF47A7202FB03F3184600F02DFE554B18
:1001AC001B684F4A1360524B1B684E4A136000F099
:1001BC002FFF00F09BFF4D4B01221A6070E04E4B5D
:1001CC001B68012B65D14D4B1B684FF47A7202FBF7
:1001DC0003F3184600F010FE00F072FF474B1B684B
:1001EC00404A1360414B02221A6052E0424B1B689A
:1001FC00012B50D13E4B1B684FF47A7202FB03F378
:10020C00184600F0F9FD00F02FFF00F043FF384BCB
:10021C001B68334A1360374B1B68324A1360334BED
:10022C0003221A6037E0344B1B68012B35D1334B5A
:10023C001B684FF47A7202FB03F3184600F0DCFDE6
:10024C0000F0FCFE2D4B1B68254A1360274B042243
:10025C001A6022E0284B1B68012B20D1244B1B6811
:10026C004FF47A7202FB03F3184600F0C5FD00F060
:10027C00CFFE00F03BFF1F4B1B68194A13601C4B51
:10028C001B68184A1360194B01221A6007E000BF63
:10029C0006E000BF04E000BF02E000BF00E000BFCA
:1002AC00114B1B68012B17D14FF47A7000F0C0FD75
:1002BC000B4B1B68184600F055FC0A4B1B68184684
:1002CC0000F074FC064B1B68013B054A1360054BA0
:1002DC001B68013B034A136000BF80BD94000020E3
:1002EC00380000203C000020900000202800002056
:1002FC003000002034000020880000202C0000205A
:10030C0080B400AF0A4B04221A600A4B0A221A600E
:10031C00094B0E221A60084B1B68084A1360054BE8
:10032C001B68074A136000BFBD4680BC704700BF06
:10033C002C00002030000020340000203800002069
:10034C003C00002080B582B000AF78607B68002B49
:10035C0013D100220121724801F0F0F90022022190
:10036C006F4801F0EBF9002204216D4801F0E6F929
:10037C00002208216A4801F0E1F97B68012B13D1B6
:10038C0000220121664801F0D9F9002202216448BB
:10039C0001F0D4F900220421614801F0CFF90122C7
:1003AC0008215F4801F0CAF97B68022B13D10022A7
:1003BC0001215B4801F0C2F900220221584801F0EA
:1003CC00BDF901220421564801F0B8F90022082198
:1003DC00534801F0B3F97B68032B13D100220121A0
:1003EC004F4801F0ABF9002202214D4801F0A6F96B
:1003FC00012204214A4801F0A1F9012208214848B0
:10040C0001F09CF97B68042B13D100220121444894
:10041C0001F094F901220221414801F08FF90022E8
:10042C0004213F4801F08AF9002208213C4801F0E0
:10043C0085F97B68052B13D100220121384801F086
:10044C007DF901220221364801F078F900220421BD
:10045C00334801F073F901220821314801F06EF99B
:10046C007B68062B13D1002201212D4801F066F97F
:10047C00012202212A4801F061F9012204212848B5
:10048C0001F05CF900220821254801F057F97B683E
:10049C00072B13D100220121214801F04FF9012231
:1004AC0002211F4801F04AF9012204211C4801F0E5
:1004BC0045F9012208211A4801F040F97B68082B04
:1004CC0013D101220121164801F038F90022022132
:1004DC00134801F033F900220421114801F02EF9E0
:1004EC00002208210E4801F029F97B68092B13D151
:1004FC00012201210A4801F021F9002202210848B9
:10050C0001F01CF900220421054801F017F9012221
:10051C000821034801F012F900BF0837BD4680BD21
:10052C00000C014080B582B000AF78607B68002B76
:10053C0013D100221021724801F000F90022202171
:10054C006F4801F0FBF8002240216D4801F0F6F8ED
:10055C00002280216A4801F0F1F87B68012B13D14D
:10056C0000221021664801F0E9F80022202164489D
:10057C0001F0E4F800224021614801F0DFF801228B
:10058C0080215F4801F0DAF87B68022B13D100223E
:10059C0010215B4801F0D2F800222021584801F0CC
:1005AC00CDF801224021564801F0C8F800228021E4
:1005BC00534801F0C3F87B68032B13D100221021A0
:1005CC004F4801F0BBF8002220214D4801F0B6F84D
:1005DC00012240214A4801F0B1F80122802148480B
:1005EC0001F0ACF87B68042B13D100221021444895
:1005FC0001F0A4F801222021414801F09FF80022CB
:10060C0040213F4801F09AF8002280213C4801F03B
:10061C0095F87B68052B13D100221021384801F086
:10062C008DF801222021364801F088F80022402163
:10063C00334801F083F801228021314801F07EF823
:10064C007B68062B13D1002210212D4801F076F87F
:10065C00012220212A4801F071F80122402128486A
:10066C0001F06CF800228021254801F067F87B68C6
:10067C00072B13D100221021214801F05FF8012231
:10068C0020211F4801F05AF8012240211C4801F09A
:10069C0055F8012280211A4801F050F87B68082B8C
:1006AC0013D101221021164801F048F80022202114
:1006BC00134801F043F800224021114801F03EF8A4
:1006CC00002280210E4801F039F87B68092B13D1E8
:1006DC00012210210A4801F031F80022202108489B
:1006EC0001F02CF800224021054801F027F80122E6
:1006FC008021034801F022F800BF0837BD4680BDB9
:10070C00000C014080B582B000AF78607B68002B94
:10071C0017D100224FF48071854801F00FF80022A8
:10072C004FF40071824801F009F800224FF4806107
:10073C007F4801F003F800224FF400617C4800F080
:10074C00FDFF7B68012B17D100224FF48071784894
:10075C0000F0F4FF00224FF40071754800F0EEFF3A
:10076C0000224FF48061724800F0E8FF01224FF440
:10077C0000616F4800F0E2FF7B68022B17D100226A
:10078C004FF480716A4800F0D9FF00224FF40071D9
:10079C00674800F0D3FF01224FF48061644800F0F9
:1007AC00CDFF00224FF40061614800F0C7FF7B6869
:1007BC00032B17D100224FF480715D4800F0BEFF6F
:1007CC0000224FF400715A4800F0B8FF01224FF498
:1007DC008061574800F0B2FF01224FF40061544889
:1007EC0000F0ACFF7B68042B17D100224FF4807112
:1007FC004F4800F0A3FF01224FF400714C4800F069
:10080C009DFF00224FF48061494800F097FF0022C1
:10081C004FF40061464800F091FF7B68052B17D11F
:10082C0000224FF48071424800F088FF01224FF4FF
:10083C0000713F4800F082FF00224FF480613C4879
:10084C0000F07CFF01224FF40061394800F076FF84
:10085C007B68062B17D100224FF48071344800F0CE
:10086C006DFF01224FF40071314800F067FF012247
:10087C004FF480612E4800F061FF00224FF40061BC
:10088C002B4800F05BFF7B68072B17D100224FF43D
:10089C008071274800F052FF01224FF40071244868
:1008AC0000F04CFF01224FF48061214800F046FF1C
:1008BC0001224FF400611E4800F040FF7B68082BBA
:1008CC0017D101224FF48071194800F037FF002234
:1008DC004FF40071164800F031FF00224FF4806194
:1008EC00134800F02BFF00224FF40061104800F079
:1008FC0025FF7B68092B17D101224FF480710C481E
:10090C0000F01CFF00224FF40071094800F016FFA4
:10091C0000224FF48061064800F010FF01224FF4D2
:10092C000061034800F00AFF00BF0837BD4680BDD8
:10093C00000C014080B582B000AF78607B68002B62
:10094C0017D100224FF48051854800F0F7FE0022A9
:10095C004FF40051824800F0F1FE00224FF4804128
:10096C007F4800F0EBFE00224FF400417C4800F081
:10097C00E5FE7B68012B17D100224FF4805178489B
:10098C0000F0DCFE00224FF40051754800F0D6FE5A
:10099C0000224FF48041724800F0D0FE01224FF447
:1009AC0000416F4800F0CAFE7B68022B17D1002271
:1009BC004FF480516A4800F0C1FE00224FF4005100
:1009CC00674800F0BBFE01224FF48041644800F000
:1009DC00B5FE00224FF40041614800F0AFFE7B6889
:1009EC00032B17D100224FF480515D4800F0A6FE76
:1009FC0000224FF400515A4800F0A0FE01224FF49F
:100A0C008041574800F09AFE01224FF400415448AF
:100A1C0000F094FE7B68042B17D100224FF4805118
:100A2C004F4800F08BFE01224FF400514C4800F06F
:100A3C0085FE00224FF48041494800F07FFE0022E1
:100A4C004FF40041464800F079FE7B68052B17D126
:100A5C0000224FF48051424800F070FE01224FF406
:100A6C0000513F4800F06AFE00224FF480413C48A0
:100A7C0000F064FE01224FF40041394800F05EFEA4
:100A8C007B68062B17D100224FF48051344800F0BC
:100A9C0055FE01224FF40051314800F04FFE012267
:100AAC004FF480412E4800F049FE00224FF40041E3
:100ABC002B4800F043FE7B68072B17D100224FF424
:100ACC008051274800F03AFE01224FF4005124488F
:100ADC0000F034FE01224FF48041214800F02EFE3C
:100AEC0001224FF400411E4800F028FE7B68082BC1
:100AFC0017D101224FF48051194800F01FFE00223B
:100B0C004FF40051164800F019FE00224FF48041BA
:100B1C00134800F013FE00224FF40041104800F07F
:100B2C000DFE7B68092B17D101224FF480510C4824
:100B3C0000F004FE00224FF40051094800F0FEFDC5
:100B4C0000224FF48041064800F0F8FD01224FF4DA
:100B5C000041034800F0F2FD00BF0837BD4680BDE0
:100B6C00000C014080B582B000AF78607B680E4A03
:100B7C0082FB03129210DB17D31A1846FFF7E2FB25
:100B8C007A68094B83FB02139910D317C91A0B46C9
:100B9C009B000B445B00D11A0846FFF7C3FC00BF57
:100BAC000837BD4680BD00BF6766666680B582B0FB
:100BBC0000AF78607B680E4A82FB03129210DB1741
:100BCC00D31A1846FFF79EFD7A68094B83FB021374
:100BDC009910D317C91A0B469B000B445B00D11A12
:100BEC000846FFF7A7FE00BF0837BD4680BD00BF13
:100BFC006766666680B500AF00F0B4FA00F00EF8D8
:100C0C0000F094F800F046F8034801F0DDF9FFF726
:100C1C0077FBFFF795FAFCE74000002080B590B019
:100C2C0000AF07F1180328220021184601F058FDE7
:100C3C003B1D00221A605A609A60DA601A61022326
:100C4C00BB610123BB621023FB6200237B6307F1B2
:100C5C001803184600F08AFD0346002B01D000F063
:100C6C00C5F80F237B600023BB600023FB600023CF
:100C7C003B6100237B613B1D0021184600F0F8FF0F
:100C8C000346002B01D000F0B1F800BF4037BD4641
:100C9C0080BD000080B586B000AF07F108030022CC
:100CAC001A605A609A60DA603B4600221A605A60F9
:100CBC001D4B4FF080421A601B4B41F63F725A603D
:100CCC00194B00229A60184B0922DA60164B00224D
:100CDC001A61154B00229A61134801F025F903465D
:100CEC00002B01D000F082F84FF48053BB6007F169
:100CFC00080319460C4801F0A3FA0346002B01D057
:100D0C0000F074F800233B6000237B603B461946DF
:100D1C00054801F07BFC0346002B01D000F066F87F
:100D2C0000BF1837BD4680BD4000002080B586B09E
:100D3C0000AF07F1080300221A605A609A60DA606B
:100D4C00224B9B69214A43F0040393611F4B9B691F
:100D5C0003F004037B607B681C4B9B691B4A43F0CC
:100D6C0008039361194B9B6903F008033B603B68D4
:100D7C0000224EF27E01164800F0E0FC00224FF6F5
:100D8C00FF71144800F0DAFC4EF27E03BB600123C5
:100D9C00FB6000233B6102237B6107F108031946CA
:100DAC000B4800F04FFB4FF6FF73BB600123FB6059
:100DBC0000233B6102237B6107F1080319460548B8
:100DCC0000F040FB00BF1837BD4680BD001002404C
:100DDC0000080140000C014080B582B000AF786083
:100DEC0000F042F800BF0837BD4680BD80B400AFAC
:100DFC0072B600BF00BFFDE780B483B000AF78606F
:100E0C007B68084A82FB03129210DB17D31A064A3E
:100E1C001360064B00221A6000BF0C37BD4680BC25
:100E2C00704700BF676666668C0000208800002053
:100E3C0080B483B000AF78607B68084A82FB0312F1
:100E4C009210DB17D31A064A1360064B00221A6065
:100E5C0000BF0C37BD4680BC704700BF6766666636
:100E6C00940000209000002080B400AF194B1B6848
:100E7C00002B0BDD174B1B68013B164A1360154BFF
:100E8C001B68002B02D1144B01221A60134B1B68F8
:100E9C00002B0BDD114B1B68013B104A13600F4BF1
:100EAC001B68002B02D10E4B01221A600D4B1B68E4
:100EBC00002B0BDD0B4B1B68013B0A4A1360094BE3
:100ECC001B68002B02D1084B01221A6000BFBD46E3
:100EDC0080BC70478C00002088000020940000200B
:100EEC00900000209C0000209800002080B485B069
:100EFC0000AF154B9B69144A43F001039361124BED
:100F0C009B6903F00103BB60BB680F4BDB690E4AA6
:100F1C0043F08053D3610C4BDB6903F080537B604F
:100F2C007B680A4B5B68FB60FB6823F0E063FB604B
:100F3C00FB6843F08063FB60044AFB68536000BFAE
:100F4C001437BD4680BC70470010024000000140C1
:100F5C0080B584B000AF78607B681B68B3F1804FBC
:100F6C0013D10C4BDB690B4A43F00103D361094BE2
:100F7C00DB6903F00103FB60FB68002200211C20ED
:100F8C0000F029FA1C2000F042FA00BF1037BD46D1
:100F9C0080BD00BF0010024080B400AF00BFFDE771
:100FAC0080B400AF00BFFDE780B400AF00BFFDE729
:100FBC0080B400AF00BFFDE780B400AF00BFFDE719
:100FCC0080B400AF00BFBD4680BC704780B400AF9A
:100FDC0000BFBD4680BC704780B400AF00BFBD46AB
:100FEC0080BC704780B500AF00F002F900BF80BD37
:100FFC0080B500AF024801F033F800BF80BD00BFE0
:10100C004000002080B400AF00BFBD4680BC7047DC
:10101C0080B500AF00220221074800F08FFB0122AF
:10102C000421054800F08AFB01220821024800F047
:10103C0085FB00BF80BD00BF0008014080B500AF3C
:10104C0001220221074800F079FB00220421054807
:10105C0000F074FB01220821024800F06FFB00BF76
:10106C0080BD00BF0008014080B500AF0122022105
:10107C00074800F063FB01220421054800F05EFBE9
:10108C0000220821024800F059FB00BF80BD00BFC0
:10109C000008014080B500AF00221021074800F085
:1010AC004DFB01222021054800F048FB0122402184
:1010BC00024800F043FB00BF80BD00BF00080140A8
:1010CC0080B500AF01221021074800F037FB002249
:1010DC002021054800F032FB01224021024800F09B
:1010EC002DFB00BF80BD00BF0008014080B500AFE4
:1010FC0001221021074800F021FB01222021054884
:10110C0000F01CFB00224021024800F017FB00BF3E
:10111C0080BD00BF00080140FFF774FF0B480C496D
:10112C000C4A002302E0D458C4500433C4188C4237
:10113C00F9D3094A094C002301E013600432A2429E
:10114C00FBD301F0D5FAFFF755FD704700000020E6
:10115C000C000020882700080C000020A4000020B0
:10116C00FEE7000080B500AF084B1B68074A43F050
:10117C0010031360032000F023F90F2000F008F88F
:10118C00FFF7B4FE0023184680BD00BF00200240CC
:10119C0080B582B000AF7860124B1A68124B1B7886
:1011AC0019464FF47A73B3FBF1F3B2FBF3F3184621
:1011BC0000F03BF90346002B01D001230EE07B68C5
:1011CC000F2B0AD8002279684FF0FF3000F003F99A
:1011DC00064A7B681360002300E001231846083799
:1011EC00BD4680BD00000020080000200400002047
:1011FC0080B400AF054B1B781A46054B1B68134493
:10120C00034A136000BFBD4680BC70470800002035
:10121C00A000002080B400AF024B1B681846BD46EE
:10122C0080BC7047A000002080B485B000AF78600F
:10123C007B6803F00703FB600C4BDB68BB60BA6890
:10124C004FF6FF031340BB60FB681A02BB681343E5
:10125C0043F0BF6343F40033BB60044ABB68D36004
:10126C0000BF1437BD4680BC704700BF00ED00E0E6
:10127C0080B400AF044BDB681B0A03F0070318466D
:10128C00BD4680BC704700BF00ED00E080B483B069
:10129C0000AF0346FB7197F90730002B0BDBFB7992
:1012AC0003F01F02064997F907305B09012000FA89
:1012BC0002F241F8232000BF0C37BD4680BC7047BA
:1012CC0000E100E080B483B000AF03463960FB71ED
:1012DC0097F90730002B0ADB3B68DAB20C4997F917
:1012EC0007301201D2B20B4483F800230AE03B68AA
:1012FC00DAB20849FB7903F00F03043B1201D2B2B6
:10130C000B441A7600BF0C37BD4680BC704700BF3B
:10131C0000E100E000ED00E080B489B000AFF860BF
:10132C00B9607A60FB6803F00703FB61FB69C3F1EA
:10133C000703042B28BF0423BB61FB690433062B72
:10134C0002D9FB69033B00E000237B614FF0FF32C5
:10135C00BB6902FA03F3DA43BB681A407B699A4013
:10136C004FF0FF317B6901FA03F3D9437B680B40E3
:10137C00134318462437BD4680BC704780B582B0F5
:10138C0000AF78607B68013BB3F1807F01D3012310
:10139C000FE00A4A7B68013B53600F214FF0FF308E
:1013AC00FFF790FF054B00229A60044B07221A604E
:1013BC00002318460837BD4680BD00BF10E000E092
:1013CC0080B582B000AF78607868FFF72DFF00BF62
:1013DC000837BD4680BD80B586B000AF0346B96006
:1013EC007A60FB7300237B61FFF742FF78617A68B8
:1013FC00B9687869FFF790FF024697F90F301146EC
:10140C001846FFF75FFF00BF1837BD4680BD80B59B
:10141C0082B000AF0346FB7197F907301846FFF70F
:10142C0035FF00BF0837BD4680BD80B582B000AF28
:10143C0078607868FFF7A2FF034618460837BD4668
:10144C0080BD000080B48BB000AF786039600023A1
:10145C007B6200233B6261E101227B6A02FA03F3A7
:10146C00FB613B681B68FA691340BB61BA69FB6995
:10147C009A4240F050813B685B68974A93425ED039
:10148C00954A934275D8954A934258D0934A9342C1
:10149C006FD8934A934252D0914A934269D8914A59
:1014AC0093424CD08F4A934263D88F4A934246D092
:1014BC008D4A93425DD8122B2AD8122B59D801A2EF
:1014CC0052F823F04B1500082515000837150008B5
:1014DC00791500087F1500087F1500087F15000896
:1014EC007F1500087F1500087F1500087F15000880
:1014FC007F1500087F1500087F1500087F15000870
:10150C007F1500087F1500082D15000841150008EF
:10151C00764A934213D02CE03B68DB683B6229E0AF
:10152C003B68DB6804333B6224E03B68DB680833D0
:10153C003B621FE03B68DB680C333B621AE03B68A4
:10154C009B68002B02D104233B6213E03B689B6831
:10155C00012B05D108233B627B68FA691A6109E00B
:10156C0008233B627B68FA695A6103E000233B6203
:10157C0000E000BFBB69FF2B01D87B6801E07B68F2
:10158C0004337B61BB69FF2B02D87B6A9B0002E0B2
:10159C007B6A083B9B003B617B691A680F213B69A6
:1015AC0001FA03F3DB431A40396A3B6901FA03F38E
:1015BC001A437B691A603B685B6803F08053002B0D
:1015CC0000F0A9804A4B9B69494A43F0010393619F
:1015DC00474B9B6903F00103BB60BB68454A7B6AC0
:1015EC009B08023352F82330FB607B6A03F0030341
:1015FC009B000F2202FA03F3DB43FA681340FB60F3
:10160C007B683D4A93420DD07B683C4A934207D09D
:10161C007B683B4A934201D1022304E0032302E09E
:10162C00012300E000237A6A02F003029200934047
:10163C00FA681343FB602F497B6A9B080233FA68F4
:10164C0041F823203B685B6803F48013002B06D021
:10165C002C4B9A682B49BB6913438B6006E0294BD2
:10166C009A68BB69DB43274913408B603B685B6816
:10167C0003F40013002B06D0224BDA682149BB6916
:10168C001343CB6006E01F4BDA68BB69DB431D4993
:10169C001340CB603B685B6803F40033002B06D02F
:1016AC00184B5A681749BB6913434B6006E0154B3E
:1016BC005A68BB69DB43134913404B603B685B685A
:1016CC0003F48033002B1FD00E4B1A680D49BB69F5
:1016DC0013430B601FE000BF0000321000003110FC
:1016EC000000221000002110000012100000111048
:1016FC00001002400000014000080140000C0140B5
:10170C0000100140000401400B4B1A68BB69DB431D
:10171C00094913400B607B6A01337B623B681A6892
:10172C007B6A22FA03F3002B7FF496AE00BF00BF56
:10173C002C37BD4680BC70470004014080B483B098
:10174C0000AF78600B467B8013467B707B78002B58
:10175C0003D07A887B681A6103E07B881A047B6863
:10176C001A6100BF0C37BD4680BC704780B586B08F
:10177C0000AF78607B68002B01D1012372E27B689B
:10178C001B6803F00103002B00F08780924B5B6811
:10179C0003F00C03042B0CD08F4B5B6803F00C0391
:1017AC00082B12D18C4B5B6803F48033B3F5803F6C
:1017BC000BD1894B1B6803F40033002B6CD07B6876
:1017CC005B68002B68D101234CE27B685B68B3F546
:1017DC00803F06D1804B1B687F4A43F480331360F3
:1017EC002EE07B685B68002B0CD17B4B1B687A4A24
:1017FC0023F480331360784B1B68774A23F48023DF
:10180C0013601DE07B685B68B3F5A02F0CD1724BA5
:10181C001B68714A43F4802313606F4B1B686E4A3C
:10182C0043F4803313600BE06B4B1B686A4A23F460
:10183C0080331360684B1B68674A23F48023136062
:10184C007B685B68002B13D0FFF7E4FC386108E081
:10185C00FFF7E0FC02463B69D31A642B01D9032342
:10186C0000E25D4B1B6803F40033002BF0D014E056
:10187C00FFF7D0FC386108E0FFF7CCFC02463B696F
:10188C00D31A642B01D90323ECE1534B1B6803F4EB
:10189C000033002BF0D100E000BF7B681B6803F025
:1018AC000203002B63D04C4B5B6803F00C03002B42
:1018BC000BD0494B5B6803F00C03082B1CD1464B37
:1018CC005B6803F48033002B16D1434B1B6803F089
:1018DC000203002B05D07B681B69012B01D001236F
:1018EC00C0E13D4B1B6823F0F8027B685B69DB00B1
:1018FC00394913430B603AE07B681B69002B20D0FD
:10190C00364B01221A60FFF785FC386108E0FFF7BF
:10191C0081FC02463B69D31A022B01D90323A1E1B6
:10192C002D4B1B6803F00203002BF0D02A4B1B68D5
:10193C0023F0F8027B685B69DB00274913430B60DB
:10194C0015E0264B00221A60FFF764FC386108E0B2
:10195C00FFF760FC02463B69D31A022B01D9032323
:10196C0080E11D4B1B6803F00203002BF0D17B6858
:10197C001B6803F00803002B3AD07B689B69002B93
:10198C0019D0174B01221A60FFF744FC386108E0AC
:10199C00FFF740FC02463B69D31A022B01D9032303
:1019AC0060E10D4B5B6A03F00203002BF0D00120C9
:1019BC0000F09CFA1CE00A4B00221A60FFF72AFC8C
:1019CC0038610FE0FFF726FC02463B69D31A022B65
:1019DC0008D9032346E100BF001002400000424238
:1019EC0080044242924B5B6A03F00203002BE9D164
:1019FC007B681B6803F00403002B00F0A680002317
:101A0C00FB758B4BDB6903F08053002B0DD1884B9E
:101A1C00DB69874A43F08053D361854BDB6903F064
:101A2C008053BB60BB680123FB75824B1B6803F4BE
:101A3C008073002B18D17F4B1B687E4A43F4807354
:101A4C001360FFF7E7FB386108E0FFF7E3FB0246A2
:101A5C003B69D31A642B01D9032303E1754B1B6833
:101A6C0003F48073002BF0D07B68DB68012B06D16C
:101A7C006F4B1B6A6E4A43F0010313622DE07B68C7
:101A8C00DB68002B0CD16A4B1B6A694A23F00103FB
:101A9C001362674B1B6A664A23F0040313621CE053
:101AAC007B68DB68052B0CD1614B1B6A604A43F0E9
:101ABC00040313625E4B1B6A5D4A43F0010313621D
:101ACC000BE05B4B1B6A5A4A23F001031362584B21
:101ADC001B6A574A23F0040313627B68DB68002BF4
:101AEC0015D0FFF797FB38610AE0FFF793FB02462E
:101AFC003B69D31A41F28832934201D90323B1E0F6
:101B0C004B4B1B6A03F00203002BEED014E0FFF7E3
:101B1C0081FB38610AE0FFF77DFB02463B69D31A73
:101B2C0041F28832934201D903239BE0404B1B6A5C
:101B3C0003F00203002BEED1FB7D012B05D13C4BB6
:101B4C00DB693B4A23F08053D3617B68DB69002B54
:101B5C0000F08780364B5B6803F00C03082B61D0D8
:101B6C007B68DB69022B46D1334B00221A60FFF7EE
:101B7C0051FB386108E0FFF74DFB02463B69D31A75
:101B8C00022B01D903236DE0294B1B6803F0007372
:101B9C00002BF0D17B681B6AB3F5803F08D1244B36
:101BAC005B6823F400327B689B68214913434B60CC
:101BBC001F4B5B6823F474127B68196A7B685B6A41
:101BCC000B431B4913434B601B4B01221A60FFF75D
:101BDC0021FB386108E0FFF71DFB02463B69D31A75
:101BEC00022B01D903233DE0114B1B6803F000735A
:101BFC00002BF0D035E0104B00221A60FFF70AFBE7
:101C0C00386108E0FFF706FB02463B69D31A022B4A
:101C1C0001D9032326E0064B1B6803F00073002B4D
:101C2C00F0D11EE07B68DB69012B07D1012319E0A1
:101C3C000010024000700040600042420B4B5B6899
:101C4C00FB60FB6803F480327B681B6A9A4206D106
:101C5C00FB6803F470127B685B6A9A4201D0012323
:101C6C0000E0002318461837BD4680BD0010024026
:101C7C0080B584B000AF786039607B68002B01D1EF
:101C8C000123D0E06A4B1B6803F007033A689A42C1
:101C9C0010D9674B1B6823F0070265493B68134357
:101CAC000B60634B1B6803F007033A689A4201D040
:101CBC000123B8E07B681B6803F00203002B20D0E3
:101CCC007B681B6803F00403002B05D0594B5B6841
:101CDC00584A43F4E06353607B681B6803F00803C5
:101CEC00002B05D0534B5B68524A43F4605353604E
:101CFC00504B5B6823F0F0027B689B684D491343A3
:101D0C004B607B681B6803F00103002B40D07B68A1
:101D1C005B68012B07D1474B1B6803F40033002B86
:101D2C0015D101237FE07B685B68022B07D1414B07
:101D3C001B6803F00073002B09D1012373E03D4BAA
:101D4C001B6803F00203002B01D101236BE0394B1C
:101D5C005B6823F003027B685B68364913434B6076
:101D6C00FFF758FAF8600AE0FFF754FA0246FB68EE
:101D7C00D31A41F28832934201D9032353E02D4BFD
:101D8C005B6803F00C027B685B689B009A42EBD1AA
:101D9C00274B1B6803F007033A689A4210D2244B76
:101DAC001B6823F0070222493B6813430B60204B4E
:101DBC001B6803F007033A689A4201D0012332E012
:101DCC007B681B6803F00403002B08D0194B5B687D
:101DDC0023F4E0627B68DB68164913434B607B6835
:101DEC001B6803F00803002B09D0124B5B6823F42B
:101DFC0060527B681B69DB000E4913434B6000F09B
:101E0C0021F802460B4B5B681B0903F00F030A49D0
:101E1C00CB5C22FA03F3094A1360094B1B68184682
:101E2C00FFF7B6F9002318461037BD4680BD00BF3A
:101E3C0000200240001002405C2700080000002037
:101E4C000400002080B487B000AF0023FB600023A7
:101E5C00BB6000237B6100237B6000233B611E4B36
:101E6C005B68FB60FB6803F00C03042B02D0082BAF
:101E7C0003D027E0194B3B6127E0FB689B0C03F078
:101E8C000F03174AD35C7B60FB6803F48033002B91
:101E9C0010D0114B5B685B0C03F00103114AD35C4F
:101EAC00BB607B680D4A03FB02F2BB68B2FBF3F329
:101EBC007B6104E07B680C4A02FB03F37B617B696A
:101ECC003B6102E0054B3B6100BF3B6918461C3788
:101EDC00BD4680BC704700BF0010024000127A0063
:101EEC006C2700087C27000800093D0080B485B0F1
:101EFC0000AF78600A4B1B680A4AA2FB03235B0AFB
:101F0C007A6802FB03F3FB6000BFFB685A1EFA60A1
:101F1C00002BF9D100BF00BF1437BD4680BC704701
:101F2C0000000020D34D621080B582B000AF786005
:101F3C007B68002B01D1012341E07B6893F83D3095
:101F4C00DBB2002B06D17B68002283F83C2078683A
:101F5C00FEF7FEFF7B68022283F83D207B681A683F
:101F6C007B6804331946104600F056FA7B68012250
:101F7C0083F846207B68012283F83E207B6801228F
:101F8C0083F83F207B68012283F840207B68012284
:101F9C0083F841207B68012283F842207B68012270
:101FAC0083F843207B68012283F844207B6801225C
:101FBC0083F845207B68012283F83D2000231846D6
:101FCC000837BD4680BD000080B485B000AF786096
:101FDC007B6893F83D30DBB2012B01D0012335E057
:101FEC007B68022283F83D207B681B68DA687B687B
:101FFC001B6842F00102DA607B681B68164A934248
:10200C0009D07B681B68B3F1804F04D07B681B68D8
:10201C00124A934211D17B681B689B6803F007033B
:10202C00FB60FB68062B10D07B681B681A687B680A
:10203C001B6842F001021A6007E07B681B681A6893
:10204C007B681B6842F001021A60002318461437A3
:10205C00BD4680BC704700BF002C0140000400400E
:10206C0080B584B000AF78607B681B68DB68FB6070
:10207C007B681B681B69BB60BB6803F00203002B09
:10208C0020D0FB6803F00203002B1BD07B681B687D
:10209C006FF002021A617B6801221A777B681B6859
:1020AC009B6903F00303002B03D0786800F098F9C8
:1020BC0005E0786800F08BF9786800F09AF97B6895
:1020CC0000221A77BB6803F00403002B20D0FB68B6
:1020DC0003F00403002B1BD07B681B686FF0040219
:1020EC001A617B6802221A777B681B689B6903F470
:1020FC004073002B03D0786800F072F905E0786823
:10210C0000F065F9786800F074F97B6800221A77A2
:10211C00BB6803F00803002B20D0FB6803F0080316
:10212C00002B1BD07B681B686FF008021A617B6860
:10213C0004221A777B681B68DB6903F00303002B0E
:10214C0003D0786800F04CF905E0786800F03FF9AE
:10215C00786800F04EF97B6800221A77BB6803F0B0
:10216C001003002B20D0FB6803F01003002B1BD0B6
:10217C007B681B686FF010021A617B6808221A7763
:10218C007B681B68DB6903F44073002B03D0786811
:10219C0000F026F905E0786800F019F9786800F08D
:1021AC0028F97B6800221A77BB6803F00103002B27
:1021BC000CD0FB6803F00103002B07D07B681B6875
:1021CC006FF001021A617868FEF706FEBB6803F037
:1021DC008003002B0CD0FB6803F08003002B07D08E
:1021EC007B681B686FF080021A61786800F06FFAE8
:1021FC00BB6803F04003002B0CD0FB6803F04003DA
:10220C00002B07D07B681B686FF040021A6178685E
:10221C0000F0F8F8BB6803F02003002B0CD0FB682F
:10222C0003F02003002B07D07B681B686FF02002A3
:10223C001A61786800F042FA00BF1037BD4680BDC5
:10224C0080B584B000AF786039600023FB737B6885
:10225C0093F83C30012B01D10223B4E07B680122BE
:10226C0083F83C207B68022283F83D207B681B6846
:10227C009B68BB60BB6823F07703BB60BB6823F42F
:10228C007F43BB607B681B68BA689A603B681B68BD
:10229C00B3F5005F3ED0B3F5005F00F28780B3F575
:1022AC00805F00F08680B3F5805F7FD8702B1AD0EA
:1022BC00702B7BD8602B50D0602B77D8502B3CD018
:1022CC00502B73D8402B58D0402B6FD8302B64D068
:1022DC00302B6BD8202B60D0202B67D8002B5CD0F8
:1022EC00102B5AD062E07B6818683B6899683B6891
:1022FC005A683B68DB6800F06AF97B681B689B686E
:10230C00BB60BB6843F07703BB607B681B68BA6833
:10231C009A604FE07B6818683B6899683B685A681C
:10232C003B68DB6800F053F97B681B689A687B6834
:10233C001B6842F480429A603CE07B6818683B68FA
:10234C0059683B68DB681A4600F0CAF87B681B6862
:10235C005021184600F021F92CE07B6818683B6886
:10236C0059683B68DB681A4600F0E8F87B681B6824
:10237C006021184600F011F91CE07B6818683B6876
:10238C0059683B68DB681A4600F0AAF87B681B6842
:10239C004021184600F001F90CE07B681A683B6894
:1023AC001B681946104600F0F8F803E00123FB7394
:1023BC0000E000BF7B68012283F83D207B6800228F
:1023CC0083F83C20FB7B18461037BD4680BD80B49B
:1023DC0083B000AF786000BF0C37BD4680BC70473F
:1023EC0080B483B000AF786000BF0C37BD4680BCB2
:1023FC00704780B483B000AF786000BF0C37BD4627
:10240C0080BC704780B483B000AF786000BF0C37DD
:10241C00BD4680BC7047000080B485B000AF7860CA
:10242C0039607B681B68FB607B682B4A934207D042
:10243C007B68B3F1804F03D07B68284A934208D164
:10244C00FB6823F07003FB603B685B68FA6813431E
:10245C00FB607B68204A934207D07B68B3F1804FC6
:10246C0003D07B681D4A934208D1FB6823F4407368
:10247C00FB603B68DB68FA681343FB60FB6823F086
:10248C0080023B685B691343FB607B68FA681A60E7
:10249C003B689A687B68DA623B681A687B689A6268
:1024AC007B680D4A934203D13B681A697B681A63B7
:1024BC007B6801225A617B681B6903F00103002BC6
:1024CC0005D07B681B6923F001027B681A6100BF91
:1024DC001437BD4680BC7047002C014000040040FE
:1024EC0080B487B000AFF860B9607A60FB681B6A93
:1024FC007B61FB681B6A23F00102FB681A62FB68B4
:10250C009B693B613B6923F0F0033B617B681B01DA
:10251C003A6913433B617B6923F00A037B617A6957
:10252C00BB6813437B61FB683A699A61FB687A6903
:10253C001A6200BF1C37BD4680BC704780B487B0A0
:10254C0000AFF860B9607A60FB681B6A7B61FB685E
:10255C001B6A23F01002FB681A62FB689B693B61E3
:10256C003B6923F470433B617B681B033A6913435B
:10257C003B617B6923F0A0037B61BB681B017A691B
:10258C0013437B61FB683A699A61FB687A691A624A
:10259C0000BF1C37BD4680BC704780B485B000AF0F
:1025AC00786039607B689B68FB60FB6823F0700384
:1025BC00FB603A68FB68134343F00703FB607B68DE
:1025CC00FA689A6000BF1437BD4680BC704780B46F
:1025DC0087B000AFF860B9607A603B60FB689B68BD
:1025EC007B617B6923F47F437B613B681A027B68C8
:1025FC001A43BB6813437A6913437B61FB687A699E
:10260C009A6000BF1C37BD4680BC704780B485B053
:10261C0000AF786039607B6893F83C30012B01D1B6
:10262C00022341E07B68012283F83C207B68022274
:10263C0083F83D207B681B685B68FB607B681B68CC
:10264C009B68BB60FB6823F07003FB603B681B68F6
:10265C00FA681343FB607B681B68FA685A607B68F6
:10266C001B68144A934209D07B681B68B3F1804FF6
:10267C0004D07B681B68104A93420CD1BB6823F0D2
:10268C008003BB603B685B68BA681343BB607B68C4
:10269C001B68BA689A607B68012283F83D207B68CE
:1026AC00002283F83C20002318461437BD4680BC1A
:1026BC00704700BF002C01400004004080B483B080
:1026CC0000AF786000BF0C37BD4680BC704780B44B
:1026DC0083B000AF786000BF0C37BD4680BC70473C
:1026EC0003460244934200D1704703F8011BF9E7FB
:1026FC0070B500260C4D0D4C641BA410A64209D1DC
:10270C0000F01AF800260A4D0A4C641BA410A642CD
:10271C0005D170BD55F8043B98470136EEE755F8E6
:10272C00043B98470136F2E7802700088027000811
:10273C008027000884270008F8B500BFF8BC08BC47
:10274C009E467047F8B500BFF8BC08BC9E46704763
:10275C000000000000000000010203040607080945
:10276C0002030405060708090A0B0C0D0E0F1010C6
:04277C000102000056
:04278000310100081B
:042784000D0100083B
:0C27880000127A001000000001000000A8
:0400000508001125B9
:00000001FF
